{
  "contractName": "Subscription",
  "abi": [
    {
      "anonymous": false,
      "inputs": [
        {
          "indexed": false,
          "internalType": "address",
          "name": "from",
          "type": "address"
        },
        {
          "indexed": false,
          "internalType": "address",
          "name": "to",
          "type": "address"
        },
        {
          "indexed": false,
          "internalType": "uint256",
          "name": "amount",
          "type": "uint256"
        },
        {
          "indexed": false,
          "internalType": "uint256",
          "name": "planID",
          "type": "uint256"
        },
        {
          "indexed": false,
          "internalType": "uint256",
          "name": "date",
          "type": "uint256"
        }
      ],
      "name": "PaymentDetails",
      "type": "event"
    },
    {
      "anonymous": false,
      "inputs": [
        {
          "indexed": false,
          "internalType": "address",
          "name": "merchant",
          "type": "address"
        },
        {
          "indexed": false,
          "internalType": "uint256",
          "name": "planID",
          "type": "uint256"
        },
        {
          "indexed": false,
          "internalType": "uint256",
          "name": "date",
          "type": "uint256"
        }
      ],
      "name": "PlanCreated",
      "type": "event"
    },
    {
      "anonymous": false,
      "inputs": [
        {
          "indexed": false,
          "internalType": "address",
          "name": "subscriber",
          "type": "address"
        },
        {
          "indexed": false,
          "internalType": "uint256",
          "name": "planID",
          "type": "uint256"
        },
        {
          "indexed": false,
          "internalType": "uint256",
          "name": "date",
          "type": "uint256"
        }
      ],
      "name": "SubscriptionCancelled",
      "type": "event"
    },
    {
      "anonymous": false,
      "inputs": [
        {
          "indexed": false,
          "internalType": "address",
          "name": "subscriber",
          "type": "address"
        },
        {
          "indexed": false,
          "internalType": "uint256",
          "name": "planID",
          "type": "uint256"
        },
        {
          "indexed": false,
          "internalType": "uint256",
          "name": "date",
          "type": "uint256"
        }
      ],
      "name": "SubscriptionCreated",
      "type": "event"
    },
    {
      "inputs": [],
      "name": "nextSubPlanID",
      "outputs": [
        {
          "internalType": "uint256",
          "name": "",
          "type": "uint256"
        }
      ],
      "stateMutability": "view",
      "type": "function"
    },
    {
      "inputs": [
        {
          "internalType": "uint256",
          "name": "",
          "type": "uint256"
        }
      ],
      "name": "plans",
      "outputs": [
        {
          "internalType": "address payable",
          "name": "merchant",
          "type": "address"
        },
        {
          "internalType": "address",
          "name": "token",
          "type": "address"
        },
        {
          "internalType": "uint256",
          "name": "amount",
          "type": "uint256"
        },
        {
          "internalType": "uint256",
          "name": "frequency",
          "type": "uint256"
        }
      ],
      "stateMutability": "view",
      "type": "function"
    },
    {
      "inputs": [
        {
          "internalType": "address",
          "name": "",
          "type": "address"
        },
        {
          "internalType": "uint256",
          "name": "",
          "type": "uint256"
        }
      ],
      "name": "subscriptions",
      "outputs": [
        {
          "internalType": "address",
          "name": "subscriber",
          "type": "address"
        },
        {
          "internalType": "uint256",
          "name": "startTime",
          "type": "uint256"
        },
        {
          "internalType": "uint256",
          "name": "nextPaymentTime",
          "type": "uint256"
        },
        {
          "internalType": "bool",
          "name": "active",
          "type": "bool"
        }
      ],
      "stateMutability": "view",
      "type": "function"
    },
    {
      "inputs": [
        {
          "internalType": "address",
          "name": "_token",
          "type": "address"
        },
        {
          "internalType": "uint256",
          "name": "_amount",
          "type": "uint256"
        },
        {
          "internalType": "uint256",
          "name": "_frequency",
          "type": "uint256"
        }
      ],
      "name": "createPlan",
      "outputs": [],
      "stateMutability": "nonpayable",
      "type": "function"
    },
    {
      "inputs": [
        {
          "internalType": "uint256",
          "name": "_planID",
          "type": "uint256"
        }
      ],
      "name": "subscribeToPlan",
      "outputs": [],
      "stateMutability": "nonpayable",
      "type": "function"
    },
    {
      "inputs": [
        {
          "internalType": "uint256",
          "name": "_planID",
          "type": "uint256"
        }
      ],
      "name": "cancelPlan",
      "outputs": [],
      "stateMutability": "nonpayable",
      "type": "function"
    },
    {
      "inputs": [
        {
          "internalType": "address",
          "name": "_subscriber",
          "type": "address"
        },
        {
          "internalType": "uint256",
          "name": "_planID",
          "type": "uint256"
        }
      ],
      "name": "pay",
      "outputs": [],
      "stateMutability": "nonpayable",
      "type": "function"
    },
    {
      "inputs": [
        {
          "internalType": "uint256",
          "name": "_planID",
          "type": "uint256"
        }
      ],
      "name": "getPlan",
      "outputs": [
        {
          "components": [
            {
              "internalType": "address payable",
              "name": "merchant",
              "type": "address"
            },
            {
              "internalType": "address",
              "name": "token",
              "type": "address"
            },
            {
              "internalType": "uint256",
              "name": "amount",
              "type": "uint256"
            },
            {
              "internalType": "uint256",
              "name": "frequency",
              "type": "uint256"
            }
          ],
          "internalType": "struct Subscription.Plan",
          "name": "",
          "type": "tuple"
        }
      ],
      "stateMutability": "view",
      "type": "function"
    },
    {
      "inputs": [
        {
          "internalType": "address",
          "name": "_user",
          "type": "address"
        },
        {
          "internalType": "uint256",
          "name": "_planID",
          "type": "uint256"
        }
      ],
      "name": "getSubscription",
      "outputs": [
        {
          "components": [
            {
              "internalType": "address",
              "name": "subscriber",
              "type": "address"
            },
            {
              "internalType": "uint256",
              "name": "startTime",
              "type": "uint256"
            },
            {
              "internalType": "uint256",
              "name": "nextPaymentTime",
              "type": "uint256"
            },
            {
              "internalType": "bool",
              "name": "active",
              "type": "bool"
            }
          ],
          "internalType": "struct Subscription.Subscription",
          "name": "",
          "type": "tuple"
        }
      ],
      "stateMutability": "view",
      "type": "function"
    },
    {
      "inputs": [],
      "name": "numberOfTotalPlans",
      "outputs": [
        {
          "internalType": "uint256",
          "name": "",
          "type": "uint256"
        }
      ],
      "stateMutability": "view",
      "type": "function"
    }
  ],
  "bytecode": "0x608060405234801561001057600080fd5b50611901806100206000396000f3fe608060405234801561001057600080fd5b506004361061009e5760003560e01c8063a655c75b11610066578063a655c75b14610170578063aedb73211461018c578063b1620616146101aa578063c4076876146101dd578063e95fc90f146101f95761009e565b806326cd5274146100a35780633ae9a18e146100d3578063623da3d1146101035780637e75cf7e1461013657806380d6664c14610154575b600080fd5b6100bd60048036038101906100b891906110a4565b610215565b6040516100ca9190611522565b60405180910390f35b6100ed60048036038101906100e89190610fe4565b610302565b6040516100fa919061153d565b60405180910390f35b61011d60048036038101906101189190610fe4565b6103f2565b60405161012d94939291906113fd565b60405180910390f35b61013e61045c565b60405161014b9190611558565b60405180910390f35b61016e600480360381019061016991906110a4565b610462565b005b61018a600480360381019061018591906110a4565b610627565b005b610194610983565b6040516101a19190611558565b60405180910390f35b6101c460048036038101906101bf91906110a4565b610999565b6040516101d494939291906112f7565b60405180910390f35b6101f760048036038101906101f29190610fe4565b610a09565b005b610213600480360381019061020e9190611024565b610cbc565b005b61021d610f11565b600160008381526020019081526020016000206040518060800160405290816000820160009054906101000a900473ffffffffffffffffffffffffffffffffffffffff1673ffffffffffffffffffffffffffffffffffffffff1673ffffffffffffffffffffffffffffffffffffffff1681526020016001820160009054906101000a900473ffffffffffffffffffffffffffffffffffffffff1673ffffffffffffffffffffffffffffffffffffffff1673ffffffffffffffffffffffffffffffffffffffff168152602001600282015481526020016003820154815250509050919050565b61030a610f65565b600260008473ffffffffffffffffffffffffffffffffffffffff1673ffffffffffffffffffffffffffffffffffffffff16815260200190815260200160002060008381526020019081526020016000206040518060800160405290816000820160009054906101000a900473ffffffffffffffffffffffffffffffffffffffff1673ffffffffffffffffffffffffffffffffffffffff1673ffffffffffffffffffffffffffffffffffffffff16815260200160018201548152602001600282015481526020016003820160009054906101000a900460ff161515151581525050905092915050565b6002602052816000526040600020602052806000526040600020600091509150508060000160009054906101000a900473ffffffffffffffffffffffffffffffffffffffff16908060010154908060020154908060030160009054906101000a900460ff16905084565b60005481565b6000600260003373ffffffffffffffffffffffffffffffffffffffff1673ffffffffffffffffffffffffffffffffffffffff16815260200190815260200160002060008381526020019081526020016000209050600073ffffffffffffffffffffffffffffffffffffffff168160000160009054906101000a900473ffffffffffffffffffffffffffffffffffffffff1673ffffffffffffffffffffffffffffffffffffffff16141561054a576040517f08c379a000000000000000000000000000000000000000000000000000000000815260040161054190611502565b60405180910390fd5b600260003373ffffffffffffffffffffffffffffffffffffffff1673ffffffffffffffffffffffffffffffffffffffff1681526020019081526020016000206000838152602001908152602001600020600080820160006101000a81549073ffffffffffffffffffffffffffffffffffffffff0219169055600182016000905560028201600090556003820160006101000a81549060ff021916905550507fde4047f3bd050ef9b8743c61b37fd72275056d1ccb33d1eb3f22c80cb14df28933834260405161061b939291906113c6565b60405180910390a15050565b60006001600083815260200190815260200160002060010160009054906101000a900473ffffffffffffffffffffffffffffffffffffffff1690506000600160008481526020019081526020016000209050600073ffffffffffffffffffffffffffffffffffffffff168160000160009054906101000a900473ffffffffffffffffffffffffffffffffffffffff1673ffffffffffffffffffffffffffffffffffffffff16141561070d576040517f08c379a0000000000000000000000000000000000000000000000000000000008152600401610704906114e2565b60405180910390fd5b8173ffffffffffffffffffffffffffffffffffffffff166323b872dd338360000160009054906101000a900473ffffffffffffffffffffffffffffffffffffffff1684600201546040518463ffffffff1660e01b81526004016107729392919061133c565b602060405180830381600087803b15801561078c57600080fd5b505af11580156107a0573d6000803e3d6000fd5b505050506040513d601f19601f820116820180604052508101906107c49190611077565b507fd4ef61d67e71800232029e1714ae0e2beb15fc61fcf0a6062ba5d2083d409a19338260000160009054906101000a900473ffffffffffffffffffffffffffffffffffffffff1683600201548642604051610824959493929190611373565b60405180910390a160405180608001604052803373ffffffffffffffffffffffffffffffffffffffff1681526020014281526020018260030154426108699190611584565b815260200160011515815250600260003373ffffffffffffffffffffffffffffffffffffffff1673ffffffffffffffffffffffffffffffffffffffff168152602001908152602001600020600085815260200190815260200160002060008201518160000160006101000a81548173ffffffffffffffffffffffffffffffffffffffff021916908373ffffffffffffffffffffffffffffffffffffffff160217905550602082015181600101556040820151816002015560608201518160030160006101000a81548160ff0219169083151502179055509050507feec977e786e7248a658b0474ccf8f57f37ead019014ec4d5ba1542ddabeff1b4338442604051610976939291906113c6565b60405180910390a1505050565b6000600160005461099491906115da565b905090565b60016020528060005260406000206000915090508060000160009054906101000a900473ffffffffffffffffffffffffffffffffffffffff16908060010160009054906101000a900473ffffffffffffffffffffffffffffffffffffffff16908060020154908060030154905084565b6000600260008473ffffffffffffffffffffffffffffffffffffffff1673ffffffffffffffffffffffffffffffffffffffff16815260200190815260200160002060008381526020019081526020016000209050600060016000848152602001908152602001600020905060008160010160009054906101000a900473ffffffffffffffffffffffffffffffffffffffff169050600073ffffffffffffffffffffffffffffffffffffffff168360000160009054906101000a900473ffffffffffffffffffffffffffffffffffffffff1673ffffffffffffffffffffffffffffffffffffffff161415610b31576040517f08c379a0000000000000000000000000000000000000000000000000000000008152600401610b28906114c2565b60405180910390fd5b82600201544211610b77576040517f08c379a0000000000000000000000000000000000000000000000000000000008152600401610b6e90611482565b60405180910390fd5b8073ffffffffffffffffffffffffffffffffffffffff166323b872dd868460000160009054906101000a900473ffffffffffffffffffffffffffffffffffffffff1685600201546040518463ffffffff1660e01b8152600401610bdc9392919061133c565b602060405180830381600087803b158015610bf657600080fd5b505af1158015610c0a573d6000803e3d6000fd5b505050506040513d601f19601f82011682018060405250810190610c2e9190611077565b507fd4ef61d67e71800232029e1714ae0e2beb15fc61fcf0a6062ba5d2083d409a19858360000160009054906101000a900473ffffffffffffffffffffffffffffffffffffffff1684600201548742604051610c8e959493929190611373565b60405180910390a18160030154836002016000828254610cae9190611584565b925050819055505050505050565b600073ffffffffffffffffffffffffffffffffffffffff168373ffffffffffffffffffffffffffffffffffffffff161415610d2c576040517f08c379a0000000000000000000000000000000000000000000000000000000008152600401610d2390611442565b60405180910390fd5b60008211610d6f576040517f08c379a0000000000000000000000000000000000000000000000000000000008152600401610d6690611462565b60405180910390fd5b60008111610db2576040517f08c379a0000000000000000000000000000000000000000000000000000000008152600401610da9906114a2565b60405180910390fd5b60405180608001604052803373ffffffffffffffffffffffffffffffffffffffff1681526020018473ffffffffffffffffffffffffffffffffffffffff16815260200183815260200182815250600160008054815260200190815260200160002060008201518160000160006101000a81548173ffffffffffffffffffffffffffffffffffffffff021916908373ffffffffffffffffffffffffffffffffffffffff16021790555060208201518160010160006101000a81548173ffffffffffffffffffffffffffffffffffffffff021916908373ffffffffffffffffffffffffffffffffffffffff16021790555060408201518160020155606082015181600301559050507f89d3f1cdfad4e5c26535ac23dc61cf9e975667801747518f01b1b653545d736a3360005442604051610eed939291906113c6565b60405180910390a1600080815480929190610f079061169e565b9190505550505050565b6040518060800160405280600073ffffffffffffffffffffffffffffffffffffffff168152602001600073ffffffffffffffffffffffffffffffffffffffff16815260200160008152602001600081525090565b6040518060800160405280600073ffffffffffffffffffffffffffffffffffffffff16815260200160008152602001600081526020016000151581525090565b600081359050610fb481611886565b92915050565b600081519050610fc98161189d565b92915050565b600081359050610fde816118b4565b92915050565b60008060408385031215610ffb57610ffa611716565b5b600061100985828601610fa5565b925050602061101a85828601610fcf565b9150509250929050565b60008060006060848603121561103d5761103c611716565b5b600061104b86828701610fa5565b935050602061105c86828701610fcf565b925050604061106d86828701610fcf565b9150509250925092565b60006020828403121561108d5761108c611716565b5b600061109b84828501610fba565b91505092915050565b6000602082840312156110ba576110b9611716565b5b60006110c884828501610fcf565b91505092915050565b6110da81611668565b82525050565b6110e981611620565b82525050565b6110f881611620565b82525050565b6111078161160e565b82525050565b6111168161160e565b82525050565b61112581611632565b82525050565b61113481611632565b82525050565b6000611147602f83611573565b91506111528261171b565b604082019050919050565b600061116a600e83611573565b91506111758261176a565b602082019050919050565b600061118d601383611573565b915061119882611793565b602082019050919050565b60006111b0602483611573565b91506111bb826117bc565b604082019050919050565b60006111d3602083611573565b91506111de8261180b565b602082019050919050565b60006111f6601983611573565b915061120182611834565b602082019050919050565b6000611219602083611573565b91506112248261185d565b602082019050919050565b60808201600082015161124560008501826110e0565b50602082015161125860208501826110fe565b50604082015161126b60408501826112d9565b50606082015161127e60608501826112d9565b50505050565b60808201600082015161129a60008501826110fe565b5060208201516112ad60208501826112d9565b5060408201516112c060408501826112d9565b5060608201516112d3606085018261111c565b50505050565b6112e28161165e565b82525050565b6112f18161165e565b82525050565b600060808201905061130c60008301876110ef565b611319602083018661110d565b61132660408301856112e8565b61133360608301846112e8565b95945050505050565b6000606082019050611351600083018661110d565b61135e60208301856110d1565b61136b60408301846112e8565b949350505050565b600060a082019050611388600083018861110d565b61139560208301876110d1565b6113a260408301866112e8565b6113af60608301856112e8565b6113bc60808301846112e8565b9695505050505050565b60006060820190506113db600083018661110d565b6113e860208301856112e8565b6113f560408301846112e8565b949350505050565b6000608082019050611412600083018761110d565b61141f60208301866112e8565b61142c60408301856112e8565b611439606083018461112b565b95945050505050565b6000602082019050818103600083015261145b8161113a565b9050919050565b6000602082019050818103600083015261147b8161115d565b9050919050565b6000602082019050818103600083015261149b81611180565b9050919050565b600060208201905081810360008301526114bb816111a3565b9050919050565b600060208201905081810360008301526114db816111c6565b9050919050565b600060208201905081810360008301526114fb816111e9565b9050919050565b6000602082019050818103600083015261151b8161120c565b9050919050565b6000608082019050611537600083018461122f565b92915050565b60006080820190506115526000830184611284565b92915050565b600060208201905061156d60008301846112e8565b92915050565b600082825260208201905092915050565b600061158f8261165e565b915061159a8361165e565b9250827fffffffffffffffffffffffffffffffffffffffffffffffffffffffffffffffff038211156115cf576115ce6116e7565b5b828201905092915050565b60006115e58261165e565b91506115f08361165e565b925082821015611603576116026116e7565b5b828203905092915050565b60006116198261163e565b9050919050565b600061162b8261163e565b9050919050565b60008115159050919050565b600073ffffffffffffffffffffffffffffffffffffffff82169050919050565b6000819050919050565b60006116738261167a565b9050919050565b60006116858261168c565b9050919050565b60006116978261163e565b9050919050565b60006116a98261165e565b91507fffffffffffffffffffffffffffffffffffffffffffffffffffffffffffffffff8214156116dc576116db6116e7565b5b600182019050919050565b7f4e487b7100000000000000000000000000000000000000000000000000000000600052601160045260246000fd5b600080fd5b7f696e76616c69642c20616464726573732073686f756c64206e6f74206265207460008201527f6865206e756c6c20616464726573730000000000000000000000000000000000602082015250565b7f696e76616c696420616d6f756e74000000000000000000000000000000000000600082015250565b7f5061796d656e74206e6f74206475652079657400000000000000000000000000600082015250565b7f6672657175656e6379206e6565647320746f206265206772656174657220746860008201527f616e203000000000000000000000000000000000000000000000000000000000602082015250565b7f7468697320737562736372697074696f6e20646f6573206e6f74206578697374600082015250565b7f7468697320706c616e20646f6573206e6f742065786973747300000000000000600082015250565b7f5468697320737562736372697074696f6e20646f6573206e6f74206578697374600082015250565b61188f8161160e565b811461189a57600080fd5b50565b6118a681611632565b81146118b157600080fd5b50565b6118bd8161165e565b81146118c857600080fd5b5056fea2646970667358221220e7544bf23cae475f96e2d17b8be77a98e99264c61e1a0c3f95c9ff03286e3a0264736f6c63430008060033",
  "immutableReferences": {},
  "source": "// SPDX-License-Identifier: MIT\r\n\r\npragma solidity ^0.8.6;\r\n\r\nimport \"@openzeppelin/contracts/token/ERC20/IERC20.sol\";\r\n\r\ncontract Subscription {\r\n    uint256 public nextSubPlanID;\r\n\r\n    struct Plan {\r\n        address payable merchant;\r\n        address token;\r\n        uint256 amount;\r\n        uint256 frequency;\r\n    }\r\n\r\n    struct Subscription {\r\n        address subscriber;\r\n        uint256 startTime;\r\n        uint256 nextPaymentTime;\r\n        bool active;\r\n    }\r\n\r\n    // Mappings:\r\n    mapping(uint256 => Plan) public plans; //ID --> Plan\r\n    mapping(address => mapping(uint256 => Subscription)) public subscriptions; //user --> has indexes of various subscriptions\r\n\r\n    // Events:\r\n    event PlanCreated(address merchant, uint256 planID, uint256 date);\r\n\r\n    event SubscriptionCreated(address subscriber, uint256 planID, uint256 date);\r\n\r\n    event SubscriptionCancelled(\r\n        address subscriber,\r\n        uint256 planID,\r\n        uint256 date\r\n    );\r\n\r\n    event PaymentDetails(\r\n        address from,\r\n        address to,\r\n        uint256 amount,\r\n        uint256 planID,\r\n        uint256 date\r\n    );\r\n\r\n    // Creating a subscription plan as a merchant:\r\n    function createPlan(\r\n        address _token,\r\n        uint256 _amount,\r\n        uint256 _frequency\r\n    ) external {\r\n        require(\r\n            _token != address(0),\r\n            \"invalid, address should not be the null address\"\r\n        );\r\n        require(_amount > 0, \"invalid amount\");\r\n        require(_frequency > 0, \"frequency needs to be greater than 0\");\r\n\r\n        plans[nextSubPlanID] = Plan(\r\n            payable(msg.sender),\r\n            _token,\r\n            _amount,\r\n            _frequency\r\n        );\r\n\r\n        emit PlanCreated(msg.sender, nextSubPlanID, block.timestamp);\r\n\r\n        // Increment index:\r\n        nextSubPlanID++;\r\n    }\r\n\r\n    function subscribeToPlan(uint256 _planID) external {\r\n        IERC20 token = IERC20(plans[_planID].token); // instantiate token chosen\r\n        Plan storage chosenPlan = plans[_planID]; // instantiate right plan chosen\r\n\r\n        require(chosenPlan.merchant != address(0), \"this plan does not exists\");\r\n\r\n        // Transfer first before subscribing:\r\n        token.transferFrom(msg.sender, chosenPlan.merchant, chosenPlan.amount);\r\n\r\n        emit PaymentDetails(\r\n            msg.sender,\r\n            chosenPlan.merchant,\r\n            chosenPlan.amount,\r\n            _planID,\r\n            block.timestamp\r\n        );\r\n\r\n        subscriptions[msg.sender][_planID] = Subscription(\r\n            msg.sender,\r\n            block.timestamp,\r\n            block.timestamp + chosenPlan.frequency,\r\n            true\r\n        );\r\n\r\n        emit SubscriptionCreated(msg.sender, _planID, block.timestamp);\r\n    }\r\n\r\n    function cancelPlan(uint256 _planID) external {\r\n        // Instantiate existing Subscription struct using subscription mapping:\r\n        Subscription storage currentSubscription = subscriptions[msg.sender][\r\n            _planID\r\n        ];\r\n        require(\r\n            currentSubscription.subscriber != address(0),\r\n            \"This subscription does not exist\"\r\n        );\r\n\r\n        delete subscriptions[msg.sender][_planID];\r\n\r\n        emit SubscriptionCancelled(msg.sender, _planID, block.timestamp);\r\n    }\r\n\r\n    // Anyone can pay\r\n    function pay(address _subscriber, uint256 _planID) external {\r\n        // Instantiate existing subscription:\r\n        Subscription storage currentSubscription = subscriptions[_subscriber][\r\n            _planID\r\n        ];\r\n        Plan storage currentPlan = plans[_planID];\r\n\r\n        // Instantiate the token of the plan:\r\n        IERC20 token = IERC20(currentPlan.token);\r\n        require(\r\n            currentSubscription.subscriber != address(0),\r\n            \"this subscription does not exist\"\r\n        );\r\n        require(\r\n            block.timestamp > currentSubscription.nextPaymentTime,\r\n            \"Payment not due yet\"\r\n        );\r\n\r\n        // Transfering token:\r\n        token.transferFrom(\r\n            _subscriber,\r\n            currentPlan.merchant,\r\n            currentPlan.amount\r\n        );\r\n\r\n        emit PaymentDetails(\r\n            _subscriber,\r\n            currentPlan.merchant,\r\n            currentPlan.amount,\r\n            _planID,\r\n            block.timestamp\r\n        );\r\n\r\n        // Update the NEXT PAYMENT DATE:\r\n        currentSubscription.nextPaymentTime += currentPlan.frequency;\r\n    }\r\n\r\n    // Helper Functions:\r\n    // function getAllPlans() public view returns (Plan[] memory) {\r\n    //     Plan[] memory allPlanArray;\r\n\r\n    //     for (uint256 i = 0; i < nextSubPlanID; i++) {\r\n    //         allPlanArray.push(plans[i]);\r\n    //     }\r\n\r\n    //     return allPlanArray;\r\n    // }\r\n\r\n    function getPlan(uint256 _planID) public view returns (Plan memory) {\r\n        return plans[_planID];\r\n    }\r\n\r\n    // function getAllSubscriptions(address _user)\r\n    //     public\r\n    //     view\r\n    //     returns (Subscription[] memory)\r\n    // {\r\n    //     Subscription[] memory allSubscriptionsArray;\r\n\r\n    //     for (uint256 i = 0; i < nextSubPlanID; i++) {\r\n    //         if (subscriptions[_user][i].active) {\r\n    //             allSubscriptionsArray.push(subscriptions[_user][i]);\r\n    //         }\r\n    //     }\r\n\r\n    //     return allSubscriptionsArray;\r\n    // }\r\n\r\n    function getSubscription(address _user, uint256 _planID)\r\n        public\r\n        view\r\n        returns (Subscription memory)\r\n    {\r\n        return subscriptions[_user][_planID];\r\n    }\r\n\r\n    function numberOfTotalPlans() public view returns (uint256) {\r\n        return nextSubPlanID - 1;\r\n    }\r\n}\r\n",
  "sourcePath": "C:/Users/victo/solidityGH/subscriptionPlan/Subscription-Plan-ETH/contracts/Subscription.sol",
  "compiler": {
    "name": "solc",
    "version": "0.8.6+commit.11564f7e.Emscripten.clang"
  },
  "schemaVersion": "3.4.1",
  "updatedAt": "2021-07-15T06:58:32.089Z",
  "devdoc": {
    "kind": "dev",
    "methods": {},
    "version": 1
  },
  "userdoc": {
    "kind": "user",
    "methods": {},
    "version": 1
  }
}